{
  "_format": "hh-sol-artifact-1",
  "contractName": "StolenApeYachtClub",
  "sourceName": "contracts/StolenApeYachtClub.sol",
  "abi": [
    {
      "inputs": [
        {
          "internalType": "string",
          "name": "name",
          "type": "string"
        },
        {
          "internalType": "string",
          "name": "symbol",
          "type": "string"
        },
        {
          "internalType": "uint256",
          "name": "maxNftSupply",
          "type": "uint256"
        },
        {
          "internalType": "uint256",
          "name": "saleStart",
          "type": "uint256"
        }
      ],
      "stateMutability": "nonpayable",
      "type": "constructor"
    },
    {
      "anonymous": false,
      "inputs": [
        {
          "indexed": true,
          "internalType": "address",
          "name": "owner",
          "type": "address"
        },
        {
          "indexed": true,
          "internalType": "address",
          "name": "approved",
          "type": "address"
        },
        {
          "indexed": true,
          "internalType": "uint256",
          "name": "tokenId",
          "type": "uint256"
        }
      ],
      "name": "Approval",
      "type": "event"
    },
    {
      "anonymous": false,
      "inputs": [
        {
          "indexed": true,
          "internalType": "address",
          "name": "owner",
          "type": "address"
        },
        {
          "indexed": true,
          "internalType": "address",
          "name": "operator",
          "type": "address"
        },
        {
          "indexed": false,
          "internalType": "bool",
          "name": "approved",
          "type": "bool"
        }
      ],
      "name": "ApprovalForAll",
      "type": "event"
    },
    {
      "anonymous": false,
      "inputs": [
        {
          "indexed": true,
          "internalType": "address",
          "name": "previousOwner",
          "type": "address"
        },
        {
          "indexed": true,
          "internalType": "address",
          "name": "newOwner",
          "type": "address"
        }
      ],
      "name": "OwnershipTransferred",
      "type": "event"
    },
    {
      "anonymous": false,
      "inputs": [
        {
          "indexed": true,
          "internalType": "address",
          "name": "from",
          "type": "address"
        },
        {
          "indexed": true,
          "internalType": "address",
          "name": "to",
          "type": "address"
        },
        {
          "indexed": true,
          "internalType": "uint256",
          "name": "tokenId",
          "type": "uint256"
        }
      ],
      "name": "Transfer",
      "type": "event"
    },
    {
      "inputs": [],
      "name": "BAYC_PROVENANCE",
      "outputs": [
        {
          "internalType": "string",
          "name": "",
          "type": "string"
        }
      ],
      "stateMutability": "view",
      "type": "function"
    },
    {
      "inputs": [],
      "name": "MAX_APES",
      "outputs": [
        {
          "internalType": "uint256",
          "name": "",
          "type": "uint256"
        }
      ],
      "stateMutability": "view",
      "type": "function"
    },
    {
      "inputs": [],
      "name": "REVEAL_TIMESTAMP",
      "outputs": [
        {
          "internalType": "uint256",
          "name": "",
          "type": "uint256"
        }
      ],
      "stateMutability": "view",
      "type": "function"
    },
    {
      "inputs": [],
      "name": "apePrice",
      "outputs": [
        {
          "internalType": "uint256",
          "name": "",
          "type": "uint256"
        }
      ],
      "stateMutability": "view",
      "type": "function"
    },
    {
      "inputs": [
        {
          "internalType": "address",
          "name": "to",
          "type": "address"
        },
        {
          "internalType": "uint256",
          "name": "tokenId",
          "type": "uint256"
        }
      ],
      "name": "approve",
      "outputs": [],
      "stateMutability": "nonpayable",
      "type": "function"
    },
    {
      "inputs": [
        {
          "internalType": "address",
          "name": "owner",
          "type": "address"
        }
      ],
      "name": "balanceOf",
      "outputs": [
        {
          "internalType": "uint256",
          "name": "",
          "type": "uint256"
        }
      ],
      "stateMutability": "view",
      "type": "function"
    },
    {
      "inputs": [],
      "name": "baseURI",
      "outputs": [
        {
          "internalType": "string",
          "name": "",
          "type": "string"
        }
      ],
      "stateMutability": "view",
      "type": "function"
    },
    {
      "inputs": [],
      "name": "emergencySetStartingIndexBlock",
      "outputs": [],
      "stateMutability": "nonpayable",
      "type": "function"
    },
    {
      "inputs": [],
      "name": "flipSaleState",
      "outputs": [],
      "stateMutability": "nonpayable",
      "type": "function"
    },
    {
      "inputs": [
        {
          "internalType": "uint256",
          "name": "tokenId",
          "type": "uint256"
        }
      ],
      "name": "getApproved",
      "outputs": [
        {
          "internalType": "address",
          "name": "",
          "type": "address"
        }
      ],
      "stateMutability": "view",
      "type": "function"
    },
    {
      "inputs": [
        {
          "internalType": "address",
          "name": "owner",
          "type": "address"
        },
        {
          "internalType": "address",
          "name": "operator",
          "type": "address"
        }
      ],
      "name": "isApprovedForAll",
      "outputs": [
        {
          "internalType": "bool",
          "name": "",
          "type": "bool"
        }
      ],
      "stateMutability": "view",
      "type": "function"
    },
    {
      "inputs": [],
      "name": "maxApePurchase",
      "outputs": [
        {
          "internalType": "uint256",
          "name": "",
          "type": "uint256"
        }
      ],
      "stateMutability": "view",
      "type": "function"
    },
    {
      "inputs": [
        {
          "internalType": "uint256",
          "name": "numberOfTokens",
          "type": "uint256"
        }
      ],
      "name": "mintApe",
      "outputs": [],
      "stateMutability": "nonpayable",
      "type": "function"
    },
    {
      "inputs": [],
      "name": "name",
      "outputs": [
        {
          "internalType": "string",
          "name": "",
          "type": "string"
        }
      ],
      "stateMutability": "view",
      "type": "function"
    },
    {
      "inputs": [],
      "name": "owner",
      "outputs": [
        {
          "internalType": "address",
          "name": "",
          "type": "address"
        }
      ],
      "stateMutability": "view",
      "type": "function"
    },
    {
      "inputs": [
        {
          "internalType": "uint256",
          "name": "tokenId",
          "type": "uint256"
        }
      ],
      "name": "ownerOf",
      "outputs": [
        {
          "internalType": "address",
          "name": "",
          "type": "address"
        }
      ],
      "stateMutability": "view",
      "type": "function"
    },
    {
      "inputs": [],
      "name": "renounceOwnership",
      "outputs": [],
      "stateMutability": "nonpayable",
      "type": "function"
    },
    {
      "inputs": [],
      "name": "reserveApes",
      "outputs": [],
      "stateMutability": "nonpayable",
      "type": "function"
    },
    {
      "inputs": [
        {
          "internalType": "address",
          "name": "from",
          "type": "address"
        },
        {
          "internalType": "address",
          "name": "to",
          "type": "address"
        },
        {
          "internalType": "uint256",
          "name": "tokenId",
          "type": "uint256"
        }
      ],
      "name": "safeTransferFrom",
      "outputs": [],
      "stateMutability": "nonpayable",
      "type": "function"
    },
    {
      "inputs": [
        {
          "internalType": "address",
          "name": "from",
          "type": "address"
        },
        {
          "internalType": "address",
          "name": "to",
          "type": "address"
        },
        {
          "internalType": "uint256",
          "name": "tokenId",
          "type": "uint256"
        },
        {
          "internalType": "bytes",
          "name": "_data",
          "type": "bytes"
        }
      ],
      "name": "safeTransferFrom",
      "outputs": [],
      "stateMutability": "nonpayable",
      "type": "function"
    },
    {
      "inputs": [],
      "name": "saleIsActive",
      "outputs": [
        {
          "internalType": "bool",
          "name": "",
          "type": "bool"
        }
      ],
      "stateMutability": "view",
      "type": "function"
    },
    {
      "inputs": [
        {
          "internalType": "address",
          "name": "operator",
          "type": "address"
        },
        {
          "internalType": "bool",
          "name": "approved",
          "type": "bool"
        }
      ],
      "name": "setApprovalForAll",
      "outputs": [],
      "stateMutability": "nonpayable",
      "type": "function"
    },
    {
      "inputs": [
        {
          "internalType": "string",
          "name": "baseURI",
          "type": "string"
        }
      ],
      "name": "setBaseURI",
      "outputs": [],
      "stateMutability": "nonpayable",
      "type": "function"
    },
    {
      "inputs": [
        {
          "internalType": "string",
          "name": "provenanceHash",
          "type": "string"
        }
      ],
      "name": "setProvenanceHash",
      "outputs": [],
      "stateMutability": "nonpayable",
      "type": "function"
    },
    {
      "inputs": [
        {
          "internalType": "uint256",
          "name": "revealTimeStamp",
          "type": "uint256"
        }
      ],
      "name": "setRevealTimestamp",
      "outputs": [],
      "stateMutability": "nonpayable",
      "type": "function"
    },
    {
      "inputs": [],
      "name": "setStartingIndex",
      "outputs": [],
      "stateMutability": "nonpayable",
      "type": "function"
    },
    {
      "inputs": [],
      "name": "startingIndex",
      "outputs": [
        {
          "internalType": "uint256",
          "name": "",
          "type": "uint256"
        }
      ],
      "stateMutability": "view",
      "type": "function"
    },
    {
      "inputs": [],
      "name": "startingIndexBlock",
      "outputs": [
        {
          "internalType": "uint256",
          "name": "",
          "type": "uint256"
        }
      ],
      "stateMutability": "view",
      "type": "function"
    },
    {
      "inputs": [
        {
          "internalType": "bytes4",
          "name": "interfaceId",
          "type": "bytes4"
        }
      ],
      "name": "supportsInterface",
      "outputs": [
        {
          "internalType": "bool",
          "name": "",
          "type": "bool"
        }
      ],
      "stateMutability": "view",
      "type": "function"
    },
    {
      "inputs": [],
      "name": "symbol",
      "outputs": [
        {
          "internalType": "string",
          "name": "",
          "type": "string"
        }
      ],
      "stateMutability": "view",
      "type": "function"
    },
    {
      "inputs": [
        {
          "internalType": "uint256",
          "name": "index",
          "type": "uint256"
        }
      ],
      "name": "tokenByIndex",
      "outputs": [
        {
          "internalType": "uint256",
          "name": "",
          "type": "uint256"
        }
      ],
      "stateMutability": "view",
      "type": "function"
    },
    {
      "inputs": [
        {
          "internalType": "address",
          "name": "owner",
          "type": "address"
        },
        {
          "internalType": "uint256",
          "name": "index",
          "type": "uint256"
        }
      ],
      "name": "tokenOfOwnerByIndex",
      "outputs": [
        {
          "internalType": "uint256",
          "name": "",
          "type": "uint256"
        }
      ],
      "stateMutability": "view",
      "type": "function"
    },
    {
      "inputs": [
        {
          "internalType": "uint256",
          "name": "tokenId",
          "type": "uint256"
        }
      ],
      "name": "tokenURI",
      "outputs": [
        {
          "internalType": "string",
          "name": "",
          "type": "string"
        }
      ],
      "stateMutability": "view",
      "type": "function"
    },
    {
      "inputs": [],
      "name": "totalSupply",
      "outputs": [
        {
          "internalType": "uint256",
          "name": "",
          "type": "uint256"
        }
      ],
      "stateMutability": "view",
      "type": "function"
    },
    {
      "inputs": [
        {
          "internalType": "address",
          "name": "from",
          "type": "address"
        },
        {
          "internalType": "address",
          "name": "to",
          "type": "address"
        },
        {
          "internalType": "uint256",
          "name": "tokenId",
          "type": "uint256"
        }
      ],
      "name": "transferFrom",
      "outputs": [],
      "stateMutability": "nonpayable",
      "type": "function"
    },
    {
      "inputs": [
        {
          "internalType": "address",
          "name": "newOwner",
          "type": "address"
        }
      ],
      "name": "transferOwnership",
      "outputs": [],
      "stateMutability": "nonpayable",
      "type": "function"
    },
    {
      "inputs": [],
      "name": "withdraw",
      "outputs": [],
      "stateMutability": "nonpayable",
      "type": "function"
    }
  ],
  "bytecode": "0x608060405260405180602001604052806000815250600b90805190602001906200002b92919062000484565b506000600f60006101000a81548160ff0219169083151502179055503480156200005457600080fd5b50604051620043d2380380620043d2833981810160405260808110156200007a57600080fd5b81019080805160405193929190846401000000008211156200009b57600080fd5b83820191506020820185811115620000b257600080fd5b8251866001820283011164010000000082111715620000d057600080fd5b8083526020830192505050908051906020019080838360005b8381101562000106578082015181840152602081019050620000e9565b50505050905090810190601f168015620001345780820380516001836020036101000a031916815260200191505b50604052602001805160405193929190846401000000008211156200015857600080fd5b838201915060208201858111156200016f57600080fd5b82518660018202830111640100000000821117156200018d57600080fd5b8083526020830192505050908051906020019080838360005b83811015620001c3578082015181840152602081019050620001a6565b50505050905090810190601f168015620001f15780820380516001836020036101000a031916815260200191505b5060405260200180519060200190929190805190602001909291905050508383620002296301ffc9a760e01b6200037360201b60201c565b81600690805190602001906200024192919062000484565b5080600790805190602001906200025a92919062000484565b50620002736380ac58cd60e01b6200037360201b60201c565b6200028b635b5e139f60e01b6200037360201b60201c565b620002a363780e9d6360e01b6200037360201b60201c565b50506000620002b76200047c60201b60201c565b905080600a60006101000a81548173ffffffffffffffffffffffffffffffffffffffff021916908373ffffffffffffffffffffffffffffffffffffffff1602179055508073ffffffffffffffffffffffffffffffffffffffff16600073ffffffffffffffffffffffffffffffffffffffff167f8be0079c531659141344cd1fd0a4f28419497f9722a3daafe3b4186f6b6457e060405160405180910390a35081600e81905550620bdd808101601081905550505050506200052a565b63ffffffff60e01b817bffffffffffffffffffffffffffffffffffffffffffffffffffffffff1916141562000410576040517f08c379a000000000000000000000000000000000000000000000000000000000815260040180806020018281038252601c8152602001807f4552433136353a20696e76616c696420696e746572666163652069640000000081525060200191505060405180910390fd5b6001600080837bffffffffffffffffffffffffffffffffffffffffffffffffffffffff19167bffffffffffffffffffffffffffffffffffffffffffffffffffffffff1916815260200190815260200160002060006101000a81548160ff02191690831515021790555050565b600033905090565b828054600181600116156101000203166002900490600052602060002090601f016020900481019282601f10620004c757805160ff1916838001178555620004f8565b82800160010185558215620004f8579182015b82811115620004f7578251825591602001919060010190620004da565b5b5090506200050791906200050b565b5090565b5b80821115620005265760008160009055506001016200050c565b5090565b613e98806200053a6000396000f3fe608060405234801561001057600080fd5b50600436106102275760003560e01c80636c0360eb11610130578063b0f67427116100b8578063e36d64981161007c578063e36d649814610c59578063e985e9c514610c77578063e986655014610cf1578063eb8d244414610cfb578063f2fde38b14610d1b57610227565b8063b0f6742714610a67578063b88d4fde14610a71578063bb8a16bd14610b76578063c87b56dd14610b94578063cb774d4714610c3b57610227565b80637d17fcbe116100ff5780637d17fcbe146109285780638da5cb5b1461093257806395d89b4114610966578063a22cb465146109e9578063a723533e14610a3957610227565b80636c0360eb1461082557806370a08231146108a8578063715018a6146109005780637a3f451e1461090a57610227565b80632f745c59116101b35780634f6ccce7116101825780634f6ccce71461062f57806355f804b314610671578063571dff3b1461072c578063607e20e31461074a5780636352211e146107cd57610227565b80632f745c591461054b57806334918dfd146105ad5780633ccfd60b146105b757806342842e0e146105c157610227565b8063095ea7b3116101fa578063095ea7b31461039857806310969523146103e657806318160ddd146104a157806318e20a38146104bf57806323b872dd146104dd57610227565b8063018a2c371461022c57806301ffc9a71461025a57806306fdde03146102bd578063081812fc14610340575b600080fd5b6102586004803603602081101561024257600080fd5b8101908080359060200190929190505050610d5f565b005b6102a56004803603602081101561027057600080fd5b8101908080357bffffffffffffffffffffffffffffffffffffffffffffffffffffffff19169060200190929190505050610e18565b60405180821515815260200191505060405180910390f35b6102c5610e7f565b6040518080602001828103825283818151815260200191508051906020019080838360005b838110156103055780820151818401526020810190506102ea565b50505050905090810190601f1680156103325780820380516001836020036101000a031916815260200191505b509250505060405180910390f35b61036c6004803603602081101561035657600080fd5b8101908080359060200190929190505050610f21565b604051808273ffffffffffffffffffffffffffffffffffffffff16815260200191505060405180910390f35b6103e4600480360360408110156103ae57600080fd5b81019080803573ffffffffffffffffffffffffffffffffffffffff16906020019092919080359060200190929190505050610fbc565b005b61049f600480360360208110156103fc57600080fd5b810190808035906020019064010000000081111561041957600080fd5b82018360208201111561042b57600080fd5b8035906020019184600183028401116401000000008311171561044d57600080fd5b91908080601f016020809104026020016040519081016040528093929190818152602001838380828437600081840152601f19601f820116905080830192505050505050509192919290505050611100565b005b6104a96111c9565b6040518082815260200191505060405180910390f35b6104c76111da565b6040518082815260200191505060405180910390f35b610549600480360360608110156104f357600080fd5b81019080803573ffffffffffffffffffffffffffffffffffffffff169060200190929190803573ffffffffffffffffffffffffffffffffffffffff169060200190929190803590602001909291905050506111e0565b005b6105976004803603604081101561056157600080fd5b81019080803573ffffffffffffffffffffffffffffffffffffffff16906020019092919080359060200190929190505050611256565b6040518082815260200191505060405180910390f35b6105b56112b1565b005b6105bf61138c565b005b61062d600480360360608110156105d757600080fd5b81019080803573ffffffffffffffffffffffffffffffffffffffff169060200190929190803573ffffffffffffffffffffffffffffffffffffffff1690602001909291908035906020019092919050505061148a565b005b61065b6004803603602081101561064557600080fd5b81019080803590602001909291905050506114aa565b6040518082815260200191505060405180910390f35b61072a6004803603602081101561068757600080fd5b81019080803590602001906401000000008111156106a457600080fd5b8201836020820111156106b657600080fd5b803590602001918460018302840111640100000000831117156106d857600080fd5b91908080601f016020809104026020016040519081016040528093929190818152602001838380828437600081840152601f19601f8201169050808301925050505050505091929192905050506114cd565b005b610734611588565b6040518082815260200191505060405180910390f35b61075261158d565b6040518080602001828103825283818151815260200191508051906020019080838360005b83811015610792578082015181840152602081019050610777565b50505050905090810190601f1680156107bf5780820380516001836020036101000a031916815260200191505b509250505060405180910390f35b6107f9600480360360208110156107e357600080fd5b810190808035906020019092919050505061162b565b604051808273ffffffffffffffffffffffffffffffffffffffff16815260200191505060405180910390f35b61082d611662565b6040518080602001828103825283818151815260200191508051906020019080838360005b8381101561086d578082015181840152602081019050610852565b50505050905090810190601f16801561089a5780820380516001836020036101000a031916815260200191505b509250505060405180910390f35b6108ea600480360360208110156108be57600080fd5b81019080803573ffffffffffffffffffffffffffffffffffffffff169060200190929190505050611704565b6040518082815260200191505060405180910390f35b6109086117d9565b005b610912611949565b6040518082815260200191505060405180910390f35b610930611955565b005b61093a611a85565b604051808273ffffffffffffffffffffffffffffffffffffffff16815260200191505060405180910390f35b61096e611aaf565b6040518080602001828103825283818151815260200191508051906020019080838360005b838110156109ae578082015181840152602081019050610993565b50505050905090810190601f1680156109db5780820380516001836020036101000a031916815260200191505b509250505060405180910390f35b610a37600480360360408110156109ff57600080fd5b81019080803573ffffffffffffffffffffffffffffffffffffffff169060200190929190803515159060200190929190505050611b51565b005b610a6560048036036020811015610a4f57600080fd5b8101908080359060200190929190505050611d07565b005b610a6f611ed0565b005b610b7460048036036080811015610a8757600080fd5b81019080803573ffffffffffffffffffffffffffffffffffffffff169060200190929190803573ffffffffffffffffffffffffffffffffffffffff1690602001909291908035906020019092919080359060200190640100000000811115610aee57600080fd5b820183602082011115610b0057600080fd5b80359060200191846001830284011164010000000083111715610b2257600080fd5b91908080601f016020809104026020016040519081016040528093929190818152602001838380828437600081840152601f19601f820116905080830192505050505050509192919290505050611fb4565b005b610b7e61202c565b6040518082815260200191505060405180910390f35b610bc060048036036020811015610baa57600080fd5b8101908080359060200190929190505050612032565b6040518080602001828103825283818151815260200191508051906020019080838360005b83811015610c00578082015181840152602081019050610be5565b50505050905090810190601f168015610c2d5780820380516001836020036101000a031916815260200191505b509250505060405180910390f35b610c43612303565b6040518082815260200191505060405180910390f35b610c61612309565b6040518082815260200191505060405180910390f35b610cd960048036036040811015610c8d57600080fd5b81019080803573ffffffffffffffffffffffffffffffffffffffff169060200190929190803573ffffffffffffffffffffffffffffffffffffffff16906020019092919050505061230f565b60405180821515815260200191505060405180910390f35b610cf96123a3565b005b610d0361250d565b60405180821515815260200191505060405180910390f35b610d5d60048036036020811015610d3157600080fd5b81019080803573ffffffffffffffffffffffffffffffffffffffff169060200190929190505050612520565b005b610d67612715565b73ffffffffffffffffffffffffffffffffffffffff16610d85611a85565b73ffffffffffffffffffffffffffffffffffffffff1614610e0e576040517f08c379a00000000000000000000000000000000000000000000000000000000081526004018080602001828103825260208152602001807f4f776e61626c653a2063616c6c6572206973206e6f7420746865206f776e657281525060200191505060405180910390fd5b8060108190555050565b6000806000837bffffffffffffffffffffffffffffffffffffffffffffffffffffffff19167bffffffffffffffffffffffffffffffffffffffffffffffffffffffff1916815260200190815260200160002060009054906101000a900460ff169050919050565b606060068054600181600116156101000203166002900480601f016020809104026020016040519081016040528092919081815260200182805460018160011615610100020316600290048015610f175780601f10610eec57610100808354040283529160200191610f17565b820191906000526020600020905b815481529060010190602001808311610efa57829003601f168201915b5050505050905090565b6000610f2c8261271d565b610f81576040517f08c379a000000000000000000000000000000000000000000000000000000000815260040180806020018281038252602c815260200180613d8d602c913960400191505060405180910390fd5b6004600083815260200190815260200160002060009054906101000a900473ffffffffffffffffffffffffffffffffffffffff169050919050565b6000610fc78261162b565b90508073ffffffffffffffffffffffffffffffffffffffff168373ffffffffffffffffffffffffffffffffffffffff16141561104e576040517f08c379a0000000000000000000000000000000000000000000000000000000008152600401808060200182810382526021815260200180613e116021913960400191505060405180910390fd5b8073ffffffffffffffffffffffffffffffffffffffff1661106d612715565b73ffffffffffffffffffffffffffffffffffffffff16148061109c575061109b81611096612715565b61230f565b5b6110f1576040517f08c379a0000000000000000000000000000000000000000000000000000000008152600401808060200182810382526038815260200180613cb86038913960400191505060405180910390fd5b6110fb838361273a565b505050565b611108612715565b73ffffffffffffffffffffffffffffffffffffffff16611126611a85565b73ffffffffffffffffffffffffffffffffffffffff16146111af576040517f08c379a00000000000000000000000000000000000000000000000000000000081526004018080602001828103825260208152602001807f4f776e61626c653a2063616c6c6572206973206e6f7420746865206f776e657281525060200191505060405180910390fd5b80600b90805190602001906111c5929190613b09565b5050565b60006111d560026127f3565b905090565b60105481565b6111f16111eb612715565b82612808565b611246576040517f08c379a0000000000000000000000000000000000000000000000000000000008152600401808060200182810382526031815260200180613e326031913960400191505060405180910390fd5b6112518383836128fc565b505050565b60006112a982600160008673ffffffffffffffffffffffffffffffffffffffff1673ffffffffffffffffffffffffffffffffffffffff168152602001908152602001600020612b3f90919063ffffffff16565b905092915050565b6112b9612715565b73ffffffffffffffffffffffffffffffffffffffff166112d7611a85565b73ffffffffffffffffffffffffffffffffffffffff1614611360576040517f08c379a00000000000000000000000000000000000000000000000000000000081526004018080602001828103825260208152602001807f4f776e61626c653a2063616c6c6572206973206e6f7420746865206f776e657281525060200191505060405180910390fd5b600f60009054906101000a900460ff1615600f60006101000a81548160ff021916908315150217905550565b611394612715565b73ffffffffffffffffffffffffffffffffffffffff166113b2611a85565b73ffffffffffffffffffffffffffffffffffffffff161461143b576040517f08c379a00000000000000000000000000000000000000000000000000000000081526004018080602001828103825260208152602001807f4f776e61626c653a2063616c6c6572206973206e6f7420746865206f776e657281525060200191505060405180910390fd5b60004790503373ffffffffffffffffffffffffffffffffffffffff166108fc829081150290604051600060405180830381858888f19350505050158015611486573d6000803e3d6000fd5b5050565b6114a583838360405180602001604052806000815250611fb4565b505050565b6000806114c1836002612b5990919063ffffffff16565b50905080915050919050565b6114d5612715565b73ffffffffffffffffffffffffffffffffffffffff166114f3611a85565b73ffffffffffffffffffffffffffffffffffffffff161461157c576040517f08c379a00000000000000000000000000000000000000000000000000000000081526004018080602001828103825260208152602001807f4f776e61626c653a2063616c6c6572206973206e6f7420746865206f776e657281525060200191505060405180910390fd5b61158581612b85565b50565b601481565b600b8054600181600116156101000203166002900480601f0160208091040260200160405190810160405280929190818152602001828054600181600116156101000203166002900480156116235780601f106115f857610100808354040283529160200191611623565b820191906000526020600020905b81548152906001019060200180831161160657829003601f168201915b505050505081565b600061165b82604051806060016040528060298152602001613d1a602991396002612b9f9092919063ffffffff16565b9050919050565b606060098054600181600116156101000203166002900480601f0160208091040260200160405190810160405280929190818152602001828054600181600116156101000203166002900480156116fa5780601f106116cf576101008083540402835291602001916116fa565b820191906000526020600020905b8154815290600101906020018083116116dd57829003601f168201915b5050505050905090565b60008073ffffffffffffffffffffffffffffffffffffffff168273ffffffffffffffffffffffffffffffffffffffff16141561178b576040517f08c379a000000000000000000000000000000000000000000000000000000000815260040180806020018281038252602a815260200180613cf0602a913960400191505060405180910390fd5b6117d2600160008473ffffffffffffffffffffffffffffffffffffffff1673ffffffffffffffffffffffffffffffffffffffff168152602001908152602001600020612bbe565b9050919050565b6117e1612715565b73ffffffffffffffffffffffffffffffffffffffff166117ff611a85565b73ffffffffffffffffffffffffffffffffffffffff1614611888576040517f08c379a00000000000000000000000000000000000000000000000000000000081526004018080602001828103825260208152602001807f4f776e61626c653a2063616c6c6572206973206e6f7420746865206f776e657281525060200191505060405180910390fd5b600073ffffffffffffffffffffffffffffffffffffffff16600a60009054906101000a900473ffffffffffffffffffffffffffffffffffffffff1673ffffffffffffffffffffffffffffffffffffffff167f8be0079c531659141344cd1fd0a4f28419497f9722a3daafe3b4186f6b6457e060405160405180910390a36000600a60006101000a81548173ffffffffffffffffffffffffffffffffffffffff021916908373ffffffffffffffffffffffffffffffffffffffff160217905550565b67011c37937e08000081565b61195d612715565b73ffffffffffffffffffffffffffffffffffffffff1661197b611a85565b73ffffffffffffffffffffffffffffffffffffffff1614611a04576040517f08c379a00000000000000000000000000000000000000000000000000000000081526004018080602001828103825260208152602001807f4f776e61626c653a2063616c6c6572206973206e6f7420746865206f776e657281525060200191505060405180910390fd5b6000600d5414611a7c576040517f08c379a000000000000000000000000000000000000000000000000000000000815260040180806020018281038252601d8152602001807f5374617274696e6720696e64657820697320616c72656164792073657400000081525060200191505060405180910390fd5b43600c81905550565b6000600a60009054906101000a900473ffffffffffffffffffffffffffffffffffffffff16905090565b606060078054600181600116156101000203166002900480601f016020809104026020016040519081016040528092919081815260200182805460018160011615610100020316600290048015611b475780601f10611b1c57610100808354040283529160200191611b47565b820191906000526020600020905b815481529060010190602001808311611b2a57829003601f168201915b5050505050905090565b611b59612715565b73ffffffffffffffffffffffffffffffffffffffff168273ffffffffffffffffffffffffffffffffffffffff161415611bfa576040517f08c379a00000000000000000000000000000000000000000000000000000000081526004018080602001828103825260198152602001807f4552433732313a20617070726f766520746f2063616c6c65720000000000000081525060200191505060405180910390fd5b8060056000611c07612715565b73ffffffffffffffffffffffffffffffffffffffff1673ffffffffffffffffffffffffffffffffffffffff16815260200190815260200160002060008473ffffffffffffffffffffffffffffffffffffffff1673ffffffffffffffffffffffffffffffffffffffff16815260200190815260200160002060006101000a81548160ff0219169083151502179055508173ffffffffffffffffffffffffffffffffffffffff16611cb4612715565b73ffffffffffffffffffffffffffffffffffffffff167f17307eab39ab6107e8899845ad3d59bd9653f200f220920489ca2b5937696c318360405180821515815260200191505060405180910390a35050565b600f60009054906101000a900460ff16611d89576040517f08c379a000000000000000000000000000000000000000000000000000000000815260040180806020018281038252601f8152602001807f53616c65206d7573742062652061637469766520746f206d696e74204170650081525060200191505060405180910390fd5b6014811115611de3576040517f08c379a0000000000000000000000000000000000000000000000000000000008152600401808060200182810382526021815260200180613c976021913960400191505060405180910390fd5b600e54611e0082611df26111c9565b612bd390919063ffffffff16565b1115611e57576040517f08c379a0000000000000000000000000000000000000000000000000000000008152600401808060200182810382526028815260200180613d656028913960400191505060405180910390fd5b60005b81811015611e98576000611e6c6111c9565b9050600e54611e796111c9565b1015611e8a57611e893382612c5b565b5b508080600101915050611e5a565b506000600c54148015611ec05750600e54611eb16111c9565b1480611ebf57506010544210155b5b15611ecd5743600c819055505b50565b611ed8612715565b73ffffffffffffffffffffffffffffffffffffffff16611ef6611a85565b73ffffffffffffffffffffffffffffffffffffffff1614611f7f576040517f08c379a00000000000000000000000000000000000000000000000000000000081526004018080602001828103825260208152602001807f4f776e61626c653a2063616c6c6572206973206e6f7420746865206f776e657281525060200191505060405180910390fd5b6000611f896111c9565b905060005b601e811015611fb057611fa333828401612c5b565b8080600101915050611f8e565b5050565b611fc5611fbf612715565b83612808565b61201a576040517f08c379a0000000000000000000000000000000000000000000000000000000008152600401808060200182810382526031815260200180613e326031913960400191505060405180910390fd5b61202684848484612c79565b50505050565b600e5481565b606061203d8261271d565b612092576040517f08c379a000000000000000000000000000000000000000000000000000000000815260040180806020018281038252602f815260200180613de2602f913960400191505060405180910390fd5b6060600860008481526020019081526020016000208054600181600116156101000203166002900480601f01602080910402602001604051908101604052809291908181526020018280546001816001161561010002031660029004801561213b5780601f106121105761010080835404028352916020019161213b565b820191906000526020600020905b81548152906001019060200180831161211e57829003601f168201915b50505050509050606061214c611662565b90506000815114156121625781925050506122fe565b6000825111156122335780826040516020018083805190602001908083835b602083106121a45780518252602082019150602081019050602083039250612181565b6001836020036101000a03801982511681845116808217855250505050505090500182805190602001908083835b602083106121f557805182526020820191506020810190506020830392506121d2565b6001836020036101000a03801982511681845116808217855250505050505090500192505050604051602081830303815290604052925050506122fe565b8061223d85612ceb565b6040516020018083805190602001908083835b602083106122735780518252602082019150602081019050602083039250612250565b6001836020036101000a03801982511681845116808217855250505050505090500182805190602001908083835b602083106122c457805182526020820191506020810190506020830392506122a1565b6001836020036101000a03801982511681845116808217855250505050505090500192505050604051602081830303815290604052925050505b919050565b600d5481565b600c5481565b6000600560008473ffffffffffffffffffffffffffffffffffffffff1673ffffffffffffffffffffffffffffffffffffffff16815260200190815260200160002060008373ffffffffffffffffffffffffffffffffffffffff1673ffffffffffffffffffffffffffffffffffffffff16815260200190815260200160002060009054906101000a900460ff16905092915050565b6000600d541461241b576040517f08c379a000000000000000000000000000000000000000000000000000000000815260040180806020018281038252601d8152602001807f5374617274696e6720696e64657820697320616c72656164792073657400000081525060200191505060405180910390fd5b6000600c541415612494576040517f08c379a00000000000000000000000000000000000000000000000000000000081526004018080602001828103825260208152602001807f5374617274696e6720696e64657820626c6f636b206d7573742062652073657481525060200191505060405180910390fd5b600e54600c544060001c816124a557fe5b06600d8190555060ff6124c3600c5443612e3290919063ffffffff16565b11156124e357600e54600143034060001c816124db57fe5b06600d819055505b6000600d54141561250b576125046001600d54612bd390919063ffffffff16565b600d819055505b565b600f60009054906101000a900460ff1681565b612528612715565b73ffffffffffffffffffffffffffffffffffffffff16612546611a85565b73ffffffffffffffffffffffffffffffffffffffff16146125cf576040517f08c379a00000000000000000000000000000000000000000000000000000000081526004018080602001828103825260208152602001807f4f776e61626c653a2063616c6c6572206973206e6f7420746865206f776e657281525060200191505060405180910390fd5b600073ffffffffffffffffffffffffffffffffffffffff168173ffffffffffffffffffffffffffffffffffffffff161415612655576040517f08c379a0000000000000000000000000000000000000000000000000000000008152600401808060200182810382526026815260200180613bfb6026913960400191505060405180910390fd5b8073ffffffffffffffffffffffffffffffffffffffff16600a60009054906101000a900473ffffffffffffffffffffffffffffffffffffffff1673ffffffffffffffffffffffffffffffffffffffff167f8be0079c531659141344cd1fd0a4f28419497f9722a3daafe3b4186f6b6457e060405160405180910390a380600a60006101000a81548173ffffffffffffffffffffffffffffffffffffffff021916908373ffffffffffffffffffffffffffffffffffffffff16021790555050565b600033905090565b6000612733826002612eb590919063ffffffff16565b9050919050565b816004600083815260200190815260200160002060006101000a81548173ffffffffffffffffffffffffffffffffffffffff021916908373ffffffffffffffffffffffffffffffffffffffff160217905550808273ffffffffffffffffffffffffffffffffffffffff166127ad8361162b565b73ffffffffffffffffffffffffffffffffffffffff167f8c5be1e5ebec7d5bd14f71427d1e84f3dd0314c0f7b2291e5b200ac8c7c3b92560405160405180910390a45050565b600061280182600001612ecf565b9050919050565b60006128138261271d565b612868576040517f08c379a000000000000000000000000000000000000000000000000000000000815260040180806020018281038252602c815260200180613c6b602c913960400191505060405180910390fd5b60006128738361162b565b90508073ffffffffffffffffffffffffffffffffffffffff168473ffffffffffffffffffffffffffffffffffffffff1614806128e257508373ffffffffffffffffffffffffffffffffffffffff166128ca84610f21565b73ffffffffffffffffffffffffffffffffffffffff16145b806128f357506128f2818561230f565b5b91505092915050565b8273ffffffffffffffffffffffffffffffffffffffff1661291c8261162b565b73ffffffffffffffffffffffffffffffffffffffff1614612988576040517f08c379a0000000000000000000000000000000000000000000000000000000008152600401808060200182810382526029815260200180613db96029913960400191505060405180910390fd5b600073ffffffffffffffffffffffffffffffffffffffff168273ffffffffffffffffffffffffffffffffffffffff161415612a0e576040517f08c379a0000000000000000000000000000000000000000000000000000000008152600401808060200182810382526024815260200180613c216024913960400191505060405180910390fd5b612a19838383612ee0565b612a2460008261273a565b612a7581600160008673ffffffffffffffffffffffffffffffffffffffff1673ffffffffffffffffffffffffffffffffffffffff168152602001908152602001600020612ee590919063ffffffff16565b50612ac781600160008573ffffffffffffffffffffffffffffffffffffffff1673ffffffffffffffffffffffffffffffffffffffff168152602001908152602001600020612eff90919063ffffffff16565b50612ade81836002612f199092919063ffffffff16565b50808273ffffffffffffffffffffffffffffffffffffffff168473ffffffffffffffffffffffffffffffffffffffff167fddf252ad1be2c89b69c2b068fc378daa952ba7f163c4a11628f55a4df523b3ef60405160405180910390a4505050565b6000612b4e8360000183612f4e565b60001c905092915050565b600080600080612b6c8660000186612fd1565b915091508160001c8160001c9350935050509250929050565b8060099080519060200190612b9b929190613b09565b5050565b6000612bb2846000018460001b8461306a565b60001c90509392505050565b6000612bcc82600001613160565b9050919050565b600080828401905083811015612c51576040517f08c379a000000000000000000000000000000000000000000000000000000000815260040180806020018281038252601b8152602001807f536166654d6174683a206164646974696f6e206f766572666c6f77000000000081525060200191505060405180910390fd5b8091505092915050565b612c75828260405180602001604052806000815250613171565b5050565b612c848484846128fc565b612c90848484846131e2565b612ce5576040517f08c379a0000000000000000000000000000000000000000000000000000000008152600401808060200182810382526032815260200180613bc96032913960400191505060405180910390fd5b50505050565b60606000821415612d33576040518060400160405280600181526020017f30000000000000000000000000000000000000000000000000000000000000008152509050612e2d565b600082905060005b60008214612d5d578080600101915050600a8281612d5557fe5b049150612d3b565b60608167ffffffffffffffff81118015612d7657600080fd5b506040519080825280601f01601f191660200182016040528015612da95781602001600182028036833780820191505090505b50905060006001830390508593505b60008414612e2557600a8481612dca57fe5b0660300160f81b82828060019003935081518110612de457fe5b60200101907effffffffffffffffffffffffffffffffffffffffffffffffffffffffffffff1916908160001a905350600a8481612e1d57fe5b049350612db8565b819450505050505b919050565b600082821115612eaa576040517f08c379a000000000000000000000000000000000000000000000000000000000815260040180806020018281038252601e8152602001807f536166654d6174683a207375627472616374696f6e206f766572666c6f77000081525060200191505060405180910390fd5b818303905092915050565b6000612ec7836000018360001b6133fb565b905092915050565b600081600001805490509050919050565b505050565b6000612ef7836000018360001b61341e565b905092915050565b6000612f11836000018360001b613506565b905092915050565b6000612f45846000018460001b8473ffffffffffffffffffffffffffffffffffffffff1660001b613576565b90509392505050565b600081836000018054905011612faf576040517f08c379a0000000000000000000000000000000000000000000000000000000008152600401808060200182810382526022815260200180613ba76022913960400191505060405180910390fd5b826000018281548110612fbe57fe5b9060005260206000200154905092915050565b60008082846000018054905011613033576040517f08c379a0000000000000000000000000000000000000000000000000000000008152600401808060200182810382526022815260200180613d436022913960400191505060405180910390fd5b600084600001848154811061304457fe5b906000526020600020906002020190508060000154816001015492509250509250929050565b60008084600101600085815260200190815260200160002054905060008114158390613131576040517f08c379a00000000000000000000000000000000000000000000000000000000081526004018080602001828103825283818151815260200191508051906020019080838360005b838110156130f65780820151818401526020810190506130db565b50505050905090810190601f1680156131235780820380516001836020036101000a031916815260200191505b509250505060405180910390fd5b5084600001600182038154811061314457fe5b9060005260206000209060020201600101549150509392505050565b600081600001805490509050919050565b61317b8383613652565b61318860008484846131e2565b6131dd576040517f08c379a0000000000000000000000000000000000000000000000000000000008152600401808060200182810382526032815260200180613bc96032913960400191505060405180910390fd5b505050565b60006132038473ffffffffffffffffffffffffffffffffffffffff16613846565b61321057600190506133f3565b606061337a63150b7a0260e01b613225612715565b888787604051602401808573ffffffffffffffffffffffffffffffffffffffff1681526020018473ffffffffffffffffffffffffffffffffffffffff16815260200183815260200180602001828103825283818151815260200191508051906020019080838360005b838110156132a957808201518184015260208101905061328e565b50505050905090810190601f1680156132d65780820380516001836020036101000a031916815260200191505b5095505050505050604051602081830303815290604052907bffffffffffffffffffffffffffffffffffffffffffffffffffffffff19166020820180517bffffffffffffffffffffffffffffffffffffffffffffffffffffffff8381831617835250505050604051806060016040528060328152602001613bc9603291398773ffffffffffffffffffffffffffffffffffffffff166138599092919063ffffffff16565b9050600081806020019051602081101561339357600080fd5b8101908080519060200190929190505050905063150b7a0260e01b7bffffffffffffffffffffffffffffffffffffffffffffffffffffffff1916817bffffffffffffffffffffffffffffffffffffffffffffffffffffffff191614925050505b949350505050565b600080836001016000848152602001908152602001600020541415905092915050565b600080836001016000848152602001908152602001600020549050600081146134fa576000600182039050600060018660000180549050039050600086600001828154811061346957fe5b906000526020600020015490508087600001848154811061348657fe5b90600052602060002001819055506001830187600101600083815260200190815260200160002081905550866000018054806134be57fe5b60019003818190600052602060002001600090559055866001016000878152602001908152602001600020600090556001945050505050613500565b60009150505b92915050565b60006135128383613871565b61356b578260000182908060018154018082558091505060019003906000526020600020016000909190919091505582600001805490508360010160008481526020019081526020016000208190555060019050613570565b600090505b92915050565b600080846001016000858152602001908152602001600020549050600081141561361d5784600001604051806040016040528086815260200185815250908060018154018082558091505060019003906000526020600020906002020160009091909190915060008201518160000155602082015181600101555050846000018054905085600101600086815260200190815260200160002081905550600191505061364b565b8285600001600183038154811061363057fe5b90600052602060002090600202016001018190555060009150505b9392505050565b600073ffffffffffffffffffffffffffffffffffffffff168273ffffffffffffffffffffffffffffffffffffffff1614156136f5576040517f08c379a00000000000000000000000000000000000000000000000000000000081526004018080602001828103825260208152602001807f4552433732313a206d696e7420746f20746865207a65726f206164647265737381525060200191505060405180910390fd5b6136fe8161271d565b15613771576040517f08c379a000000000000000000000000000000000000000000000000000000000815260040180806020018281038252601c8152602001807f4552433732313a20746f6b656e20616c7265616479206d696e7465640000000081525060200191505060405180910390fd5b61377d60008383612ee0565b6137ce81600160008573ffffffffffffffffffffffffffffffffffffffff1673ffffffffffffffffffffffffffffffffffffffff168152602001908152602001600020612eff90919063ffffffff16565b506137e581836002612f199092919063ffffffff16565b50808273ffffffffffffffffffffffffffffffffffffffff16600073ffffffffffffffffffffffffffffffffffffffff167fddf252ad1be2c89b69c2b068fc378daa952ba7f163c4a11628f55a4df523b3ef60405160405180910390a45050565b600080823b905060008111915050919050565b60606138688484600085613894565b90509392505050565b600080836001016000848152602001908152602001600020541415905092915050565b6060824710156138ef576040517f08c379a0000000000000000000000000000000000000000000000000000000008152600401808060200182810382526026815260200180613c456026913960400191505060405180910390fd5b6138f885613846565b61396a576040517f08c379a000000000000000000000000000000000000000000000000000000000815260040180806020018281038252601d8152602001807f416464726573733a2063616c6c20746f206e6f6e2d636f6e747261637400000081525060200191505060405180910390fd5b600060608673ffffffffffffffffffffffffffffffffffffffff1685876040518082805190602001908083835b602083106139ba5780518252602082019150602081019050602083039250613997565b6001836020036101000a03801982511681845116808217855250505050505090500191505060006040518083038185875af1925050503d8060008114613a1c576040519150601f19603f3d011682016040523d82523d6000602084013e613a21565b606091505b5091509150613a31828286613a3d565b92505050949350505050565b60608315613a4d57829050613b02565b600083511115613a605782518084602001fd5b816040517f08c379a00000000000000000000000000000000000000000000000000000000081526004018080602001828103825283818151815260200191508051906020019080838360005b83811015613ac7578082015181840152602081019050613aac565b50505050905090810190601f168015613af45780820380516001836020036101000a031916815260200191505b509250505060405180910390fd5b9392505050565b828054600181600116156101000203166002900490600052602060002090601f016020900481019282601f10613b4a57805160ff1916838001178555613b78565b82800160010185558215613b78579182015b82811115613b77578251825591602001919060010190613b5c565b5b509050613b859190613b89565b5090565b5b80821115613ba2576000816000905550600101613b8a565b509056fe456e756d657261626c655365743a20696e646578206f7574206f6620626f756e64734552433732313a207472616e7366657220746f206e6f6e20455243373231526563656976657220696d706c656d656e7465724f776e61626c653a206e6577206f776e657220697320746865207a65726f20616464726573734552433732313a207472616e7366657220746f20746865207a65726f2061646472657373416464726573733a20696e73756666696369656e742062616c616e636520666f722063616c6c4552433732313a206f70657261746f7220717565727920666f72206e6f6e6578697374656e7420746f6b656e43616e206f6e6c79206d696e7420323020746f6b656e7320617420612074696d654552433732313a20617070726f76652063616c6c6572206973206e6f74206f776e6572206e6f7220617070726f76656420666f7220616c6c4552433732313a2062616c616e636520717565727920666f7220746865207a65726f20616464726573734552433732313a206f776e657220717565727920666f72206e6f6e6578697374656e7420746f6b656e456e756d657261626c654d61703a20696e646578206f7574206f6620626f756e6473507572636861736520776f756c6420657863656564206d617820737570706c79206f6620417065734552433732313a20617070726f76656420717565727920666f72206e6f6e6578697374656e7420746f6b656e4552433732313a207472616e73666572206f6620746f6b656e2074686174206973206e6f74206f776e4552433732314d657461646174613a2055524920717565727920666f72206e6f6e6578697374656e7420746f6b656e4552433732313a20617070726f76616c20746f2063757272656e74206f776e65724552433732313a207472616e736665722063616c6c6572206973206e6f74206f776e6572206e6f7220617070726f766564a2646970667358221220395171aed4fa9a0fdb5008c4a2384dcee520e9eea5b79f07c0aa1889be2d6c8064736f6c63430007000033",
  "linkReferences": {},
  "deployedLinkReferences": {}
}